{
  "transactions": [
    {
      "hash": "0xae9dd682de0dd1d9d08360710251d589df2e0c778ee70ecb982873cb9c799b6c",
      "transactionType": "CALL",
      "contractName": "LinkToken",
      "contractAddress": "0x779877a7b0d9e8603169ddbd7836e478b4624789",
      "function": "transferAndCall(address,uint256,bytes)",
      "arguments": [
        "0x9DdfaCa8183c41ad55329BdeeD9F6A8d53168B1B",
        "3000000000000000000",
        "0x9d994c74b4ca0b007af2d5d777477bacdf6481faaef5594712b8fb0f1dd679b1"
      ],
      "transaction": {
        "from": "0x6e83e5599ed062da06c5b64d1c45e62946a852ae",
        "to": "0x779877a7b0d9e8603169ddbd7836e478b4624789",
        "gas": "0x1a8ee",
        "value": "0x0",
        "input": "0x4000aea00000000000000000000000009ddfaca8183c41ad55329bdeed9f6a8d53168b1b00000000000000000000000000000000000000000000000029a2241af62c0000000000000000000000000000000000000000000000000000000000000000006000000000000000000000000000000000000000000000000000000000000000209d994c74b4ca0b007af2d5d777477bacdf6481faaef5594712b8fb0f1dd679b1",
        "nonce": "0x65",
        "chainId": "0xaa36a7"
      },
      "additionalContracts": [],
      "isFixedGasLimit": false
    }
  ],
  "receipts": [
    {
      "status": "0x1",
      "cumulativeGasUsed": "0xea7506",
      "logs": [
        {
          "address": "0x779877a7b0d9e8603169ddbd7836e478b4624789",
          "topics": [
            "0xddf252ad1be2c89b69c2b068fc378daa952ba7f163c4a11628f55a4df523b3ef",
            "0x0000000000000000000000006e83e5599ed062da06c5b64d1c45e62946a852ae",
            "0x0000000000000000000000009ddfaca8183c41ad55329bdeed9f6a8d53168b1b"
          ],
          "data": "0x00000000000000000000000000000000000000000000000029a2241af62c0000",
          "blockHash": "0xca50095e9f6dd029ff345411e2f6b358e203a38ce7a44647bd7585106163a43d",
          "blockNumber": "0xa01a93",
          "blockTimestamp": "0x69bee504",
          "transactionHash": "0xae9dd682de0dd1d9d08360710251d589df2e0c778ee70ecb982873cb9c799b6c",
          "transactionIndex": "0x5e",
          "logIndex": "0x18f",
          "removed": false
        },
        {
          "address": "0x779877a7b0d9e8603169ddbd7836e478b4624789",
          "topics": [
            "0xe19260aff97b920c7df27010903aeb9c8d2be5d310a2c67824cf3f15396e4c16",
            "0x0000000000000000000000006e83e5599ed062da06c5b64d1c45e62946a852ae",
            "0x0000000000000000000000009ddfaca8183c41ad55329bdeed9f6a8d53168b1b"
          ],
          "data": "0x00000000000000000000000000000000000000000000000029a2241af62c0000000000000000000000000000000000000000000000000000000000000000004000000000000000000000000000000000000000000000000000000000000000209d994c74b4ca0b007af2d5d777477bacdf6481faaef5594712b8fb0f1dd679b1",
          "blockHash": "0xca50095e9f6dd029ff345411e2f6b358e203a38ce7a44647bd7585106163a43d",
          "blockNumber": "0xa01a93",
          "blockTimestamp": "0x69bee504",
          "transactionHash": "0xae9dd682de0dd1d9d08360710251d589df2e0c778ee70ecb982873cb9c799b6c",
          "transactionIndex": "0x5e",
          "logIndex": "0x190",
          "removed": false
        },
        {
          "address": "0x9ddfaca8183c41ad55329bdeed9f6a8d53168b1b",
          "topics": [
            "0x1ced9348ff549fceab2ac57cd3a9de38edaaab274b725ee82c23e8fc8c4eec7a",
            "0x9d994c74b4ca0b007af2d5d777477bacdf6481faaef5594712b8fb0f1dd679b1"
          ],
          "data": "0x000000000000000000000000000000000000000000000000000000000000000000000000000000000000000000000000000000000000000029a2241af62c0000",
          "blockHash": "0xca50095e9f6dd029ff345411e2f6b358e203a38ce7a44647bd7585106163a43d",
          "blockNumber": "0xa01a93",
          "blockTimestamp": "0x69bee504",
          "transactionHash": "0xae9dd682de0dd1d9d08360710251d589df2e0c778ee70ecb982873cb9c799b6c",
          "transactionIndex": "0x5e",
          "logIndex": "0x191",
          "removed": false
        }
      ],
      "logsBloom": "0x00000004000000000000000000000100000000000020000000000000020000000000000000000000000000000000000000000000000000000000000000000000000000000000000000000008000000000000000000000000000020000020000008000000000000000000000000000000000000000020000000000010000040000000000000000000000000010000800000000020000000000000000000000000000000000000000000000010010000000000004000020000000004000000000000000002000000000000008000000000000000000000000100000000000000000010000000000000800000000000000000000000000000000000000000000000",
      "type": "0x2",
      "transactionHash": "0xae9dd682de0dd1d9d08360710251d589df2e0c778ee70ecb982873cb9c799b6c",
      "transactionIndex": "0x5e",
      "blockHash": "0xca50095e9f6dd029ff345411e2f6b358e203a38ce7a44647bd7585106163a43d",
      "blockNumber": "0xa01a93",
      "gasUsed": "0x133a5",
      "effectiveGasPrice": "0xf4269",
      "from": "0x6e83e5599ed062da06c5b64d1c45e62946a852ae",
      "to": "0x779877a7b0d9e8603169ddbd7836e478b4624789",
      "contractAddress": null
    }
  ],
  "libraries": [],
  "pending": [],
  "returns": {},
  "timestamp": 1774118148587,
  "chain": 11155111,
  "commit": "d361558"
}